:020000040800F2
:1000000000280020CD3E0008153F0008153F0008DD
:10001000153F0008153F0008153F000800000000CC
:10002000000000000000000000000000153F000874
:10003000153F000800000000153F00089765000804
:10004000153F0008153F0008153F0008153F000840
:10005000153F0008153F00084D7D0008537D00083E
:10006000597D00085F7D0008657D0008153F000888
:10007000153F0008153F0008153F0008153F000810
:10008000153F0008153F0008153F0008153F000800
:10009000153F0008153F0008153F00086B7D00085C
:1000A000153F0008CD760008153F0008E1760008EE
:1000B000E5760008F976000800000000516E00089F
:1000C0005D6E00080000000000000000153F000801
:1000D00000000000357100084D71000800000000AC
:1000E000817D0008556A0008153F000800000000E7
:1000F0000000000000000000000000000000000000
:0C01000000000000000000005FF808F1A3
:10010C00034613F8012B002AFBD1181A013870474B
:10011C0081F0004102E000BF83F0004330B54FEAAC
:10012C0041044FEA430594EA050F08BF90EA020F19
:10013C001FBF54EA000C55EA020C7FEA645C7FEAAC
:10014C00655C00F0E2804FEA5454D4EB5555B8BFCF
:10015C006D420CDD2C4480EA020281EA030382EA40
:10016C00000083EA010180EA020281EA0303362DD2
:10017C0088BF30BD11F0004F4FEA01314FF4801CA5
:10018C004CEA113102D0404261EB410113F0004FB7
:10019C004FEA03334CEA133302D0524263EB43036E
:1001AC0094EA050F00F0A780A4F10104D5F1200E0C
:1001BC000DDB02FA0EFC22FA05F2801841F1000167
:1001CC0003FA0EF2801843FA05F359410EE0A5F13B
:1001DC0020050EF1200E012A03FA0EFC28BF4CF06C
:1001EC00020C43FA05F3C01851EBE37101F0004522
:1001FC0007D54FF0000EDCF1000C7EEB00006EEB2F
:10020C000101B1F5801F1BD3B1F5001F0CD34908B8
:10021C005FEA30004FEA3C0C04F101044FEA44520F
:10022C0012F5800F80F09A80BCF1004F08BF5FEA96
:10023C00500C50F1000041EB045141EA050130BD76
:10024C005FEA4C0C404141EB010111F4801FA4F119
:10025C000104E9D191F0000F04BF01460020B1FA6E
:10026C0081F308BF2033A3F10B03B3F120020CDAA6
:10027C000C3208DD02F1140CC2F10C0201FA0CF084
:10028C0021FA02F10CE002F11402D8BFC2F1200CE9
:10029C0001FA02F120FA0CFCDCBF41EA0C0190409F
:1002AC00E41AA2BF01EB0451294330BD6FEA0404E8
:1002BC001F3C1CDA0C340EDC04F11404C4F12002D3
:1002CC0020FA04F001FA02F340EA030021FA04F3E5
:1002DC0045EA030130BDC4F10C04C4F1200220FA3C
:1002EC0002F001FA04F340EA0300294630BD21FA7A
:1002FC0004F0294630BD94F0000F83F4801306BF40
:10030C0081F480110134013D4EE77FEA645C18BF33
:10031C007FEA655C29D094EA050F08BF90EA020FCA
:10032C0005D054EA000C04BF1946104630BD91EAC2
:10033C00030F1EBF0021002030BD5FEA545C05D1C5
:10034C004000494128BF41F0004130BD14F5800404
:10035C003CBF01F5801130BD01F0004545F0FE4178
:10036C0041F470014FF0000030BD7FEA645C1ABFAD
:10037C00194610467FEA655C1CBF0B46024650EAE4
:10038C00013406BF52EA033591EA030F41F4002110
:10039C0030BD00BF90F0000F04BF0021704730B596
:1003AC004FF4806404F132044FF000054FF000016B
:1003BC0050E700BF90F0000F04BF0021704730B52C
:1003CC004FF4806404F1320410F0004548BF404201
:1003DC004FF000013EE700BF42004FEAE2014FEA56
:1003EC0031014FEA02701FBF12F07F4393F07F4F31
:1003FC0081F06051704732F07F4208BF704793F034
:10040C007F4F04BF41F40021704730B54FF4607446
:10041C0001F0004521F000411CE700BF50EA010249
:10042C0008BF704730B54FF000050AE050EA0102F2
:10043C0008BF704730B511F0004502D5404261EB62
:10044C0041014FF4806404F132045FEA915C3FF4A3
:10045C00D8AE4FF003025FEADC0C18BF03325FEA40
:10046C00DC0C18BF033202EBDC02C2F1200300FAF1
:10047C0003FC20FA02F001FA03FE40EA0E0021FA16
:10048C0002F11444BDE600BF70B54FF0FF0C4CF404
:10049C00E06C1CEA11541DBF1CEA135594EA0C0FB6
:1004AC0095EA0C0F00F0DEF82C4481EA030621EAF1
:1004BC004C5123EA4C5350EA013518BF52EA03352C
:1004CC0041F4801143F4801338D0A0FB02CE4FF0DE
:1004DC000005E1FB02E506F00042E0FB03E54FF00E
:1004EC000006E1FB03569CF0000F18BF4EF0010E06
:1004FC00A4F1FF04B6F5007F64F5407404D25FEA02
:10050C004E0E6D4146EB060642EAC62141EA5551B4
:10051C004FEAC52040EA5E504FEACE2EB4F1FD0CF6
:10052C0088BFBCF5E06F1ED8BEF1004F08BF5FEA74
:10053C00500E50F1000041EB045170BD06F0004626
:10054C0046EA010140EA020081EA0301B4EB5C04D3
:10055C00C2BFD4EB0C0541EA045170BD41F48011CB
:10056C004FF0000E013C00F3AB8014F1360FDEBFF0
:10057C00002001F0004170BDC4F10004203C35DACC
:10058C000C341BDC04F11404C4F1200500FA05F34F
:10059C0020FA04F001FA05F240EA020001F00042F0
:1005AC0021F0004110EBD37021FA04F642EB060166
:1005BC005EEA430E08BF20EAD37070BDC4F10C0490
:1005CC00C4F1200500FA04F320FA05F001FA04F254
:1005DC0040EA020001F0004110EBD37041F1000140
:1005EC005EEA430E08BF20EAD37070BDC4F120054B
:1005FC0000FA05F24EEA020E20FA04F301FA05F2B3
:10060C0043EA020321FA04F001F0004121FA04F25A
:10061C0020EA020000EBD3705EEA430E08BF20EA2A
:10062C00D37070BD94F0000F0FD101F00046400064
:10063C0041EB010111F4801F08BF013CF7D041EAE6
:10064C00060195F0000F18BF704703F000465200EA
:10065C0043EB030313F4801F08BF013DF7D043EABB
:10066C000603704794EA0C0F0CEA135518BF95EA71
:10067C000C0F0CD050EA410618BF52EA4306D1D1F8
:10068C0081EA030101F000414FF0000070BD50EA17
:10069C00410606BF1046194652EA430619D094EAA1
:1006AC000C0F02D150EA013613D195EA0C0F05D18B
:1006BC0052EA03361CBF104619460AD181EA0301DF
:1006CC0001F0004141F0FE4141F470014FF0000097
:1006DC0070BD41F0FE4141F4780170BD70B54FF032
:1006EC00FF0C4CF4E06C1CEA11541DBF1CEA1355B2
:1006FC0094EA0C0F95EA0C0F00F0A7F8A4EB050494
:10070C0081EA030E52EA03354FEA013100F088808A
:10071C004FEA03334FF0805545EA131343EA126353
:10072C004FEA022245EA111545EA10654FEA002608
:10073C000EF000419D4208BF964244F1FD0404F5C1
:10074C00407402D25B084FEA3202B61A65EB03051D
:10075C005B084FEA32024FF480104FF4002CB6EBDA
:10076C00020E75EB030E22BFB61A754640EA0C005A
:10077C005B084FEA3202B6EB020E75EB030E22BF9A
:10078C00B61A754640EA5C005B084FEA3202B6EBDB
:10079C00020E75EB030E22BFB61A754640EA9C009A
:1007AC005B084FEA3202B6EB020E75EB030E22BF6A
:1007BC00B61A754640EADC0055EA060E18D04FEA28
:1007CC00051545EA16754FEA06164FEAC30343EAC8
:1007DC0052734FEAC2025FEA1C1CC0D111F4801F95
:1007EC000BD141EA00014FF000004FF0004CB6E78E
:1007FC0011F4801F04BF01430020B4F1FD0C88BF2D
:10080C00BCF5E06F3FF6AFAEB5EB030C04BFB6EB37
:10081C00020C5FEA500C50F1000041EB045170BD2A
:10082C000EF0004E4EEA113114EB5C04C2BFD4EB57
:10083C000C0541EA045170BD41F480114FF0000EDB
:10084C00013C90E645EA060E8DE60CEA135594EA57
:10085C000C0F08BF95EA0C0F3FF43BAF94EA0C0F5A
:10086C000AD150EA01347FF434AF95EA0C0F7FF4CF
:10087C0025AF104619462CE795EA0C0F06D152EA23
:10088C0003353FF4FDAE1046194622E750EA410607
:10089C0018BF52EA43067FF4C5AE50EA41047FF418
:1008AC000DAF52EA43057FF4EBAE12E74FF0FF3C7D
:1008BC0006E000BF4FF0010C02E000BF4FF0010C4E
:1008CC004DF804CD4FEA410C7FEA6C5C4FEA430CC7
:1008DC0018BF7FEA6C5C1BD001B050EA410C0CBF16
:1008EC0052EA430C91EA030F02BF90EA020F002078
:1008FC00704710F1000F91EA030F58BF994208BFDF
:10090C0090422CBFD8176FEAE37040F0010070479B
:10091C004FEA410C7FEA6C5C02D150EA013C07D1F2
:10092C004FEA430C7FEA6C5CD6D152EA033CD3D03D
:10093C005DF8040B704700BF8446104662468C4637
:10094C001946634600E000BF01B5FFF7B7FF00286A
:10095C0048BF10F1000F01BD4DF808EDFFF7F4FF93
:10096C000CBF012000205DF808FB00BF4DF808ED1E
:10097C00FFF7EAFF34BF012000205DF808FB00BF41
:10098C004DF808EDFFF7E0FF94BF012000205DF863
:10099C0008FB00BF4DF808EDFFF7CEFF94BF012018
:1009AC0000205DF808FB00BF4DF808EDFFF7C4FF11
:1009BC0034BF012000205DF808FB00BF4FEA410264
:1009CC0012F5001215D211D56FF47873B3EB625295
:1009DC0012D94FEAC12343F0004343EA505311F0BC
:1009EC00004F23FA02F018BF404270474FF000004E
:1009FC00704750EA013005D111F0004008BF6FF08C
:100A0C00004070474FF00000704700BF4FEA4102B2
:100A1C00B2F1E04324BFB3F5001CDCF1FE5C0DD950
:100A2C0001F0004C4FEAC0024CEA5070B2F1004F9A
:100A3C0040EB830008BF20F00100704711F0804F9D
:100A4C0021D113F13872BCBF01F00040704741F462
:100A5C0080114FEA5252C2F11802C2F1200C10FA66
:100A6C000CF320FA02F018BF40F001004FEAC1234A
:100A7C004FEAD32303FA0CFC40EA0C0023FA02F3EE
:100A8C004FEA4303CCE77FEA625307D150EA0133C4
:100A9C001EBF4FF0FE4040F44000704701F0004094
:100AAC0040F0FE4040F40000704700BF80F0004072
:100ABC0002E000BF81F0004142001FBF5FEA41032A
:100ACC0092EA030F7FEA226C7FEA236C6AD04FEA2A
:100ADC001262D2EB1363C1BFD2184140484041406F
:100AEC00B8BF5B42192B88BF704710F0004F40F421
:100AFC00000020F07F4018BF404211F0004F41F43D
:100B0C00000121F07F4118BF494292EA030F3FD008
:100B1C00A2F1010241FA03FC10EB0C00C3F120031B
:100B2C0001FA03F100F0004302D5494260EB4000AA
:100B3C00B0F5000F13D3B0F1807F06D340084FEA15
:100B4C00310102F10102FE2A51D2B1F1004F40EB0A
:100B5C00C25008BF20F0010040EA03007047490072
:100B6C0040EB000010F4000FA2F10102EDD1B0FA3D
:100B7C0080FCACF1080CB2EB0C0200FA0CF0AABF32
:100B8C0000EBC25052421843BCBFD04018437047D0
:100B9C0092F0000F81F4000106BF80F400000132D6
:100BAC00013BB5E74FEA41037FEA226C18BF7FEAAD
:100BBC00236C21D092EA030F04D092F0000F08BFEF
:100BCC000846704790EA010F1CBF0020704712F0D6
:100BDC007F4F04D1400028BF40F00040704712F115
:100BEC0000723CBF00F50000704700F0004343F07A
:100BFC00FE4040F4000070477FEA226216BF0846B0
:100C0C007FEA23630146420206BF5FEA412390EA72
:100C1C00010F40F4800070474FF0000304E000BF68
:100C2C0010F0004348BF40425FEA000C08BF704719
:100C3C0043F0964301464FF000001CE050EA0102DD
:100C4C0008BF70474FF000030AE000BF50EA0102F2
:100C5C0008BF704711F0004302D5404261EB4101DF
:100C6C005FEA010C02BF84460146002043F0B64304
:100C7C0008BFA3F18053A3F50003BCFA8CF2083A29
:100C8C00A3EBC25310DB01FA02FC634400FA02FC32
:100C9C00C2F12002BCF1004F20FA02F243EB020039
:100CAC0008BF20F00100704702F1200201FA02FC9B
:100CBC00C2F1200250EA4C0021FA02F243EB02008E
:100CCC0008BF20EADC7070474FF0FF0C1CEAD052D2
:100CDC001EBF1CEAD15392EA0C0F93EA0C0F6FD093
:100CEC001A4480EA010C400218BF5FEA41211ED071
:100CFC004FF0006343EA501043EA5111A0FB01315D
:100D0C000CF00040B1F5000F3EBF490041EAD37131
:100D1C005B0040EA010062F17F02FD2A1DD8B3F1AD
:100D2C00004F40EBC25008BF20F00100704790F01C
:100D3C00000F0CF0004C08BF49024CEA502040EA6E
:100D4C0051207F3AC2BFD2F1FF0340EAC250704734
:100D5C0040F400004FF00003013A5DDC12F1190F72
:100D6C00DCBF00F000407047C2F10002410021FAE4
:100D7C0002F1C2F1200200FA02FC5FEA310040F1FC
:100D8C00000053EA4C0308BF20EADC70704792F075
:100D9C00000F00F0004C02BF400010F4000F013AAD
:100DAC00F9D040EA0C0093F0000F01F0004C02BFA8
:100DBC00490011F4000F013BF9D041EA0C018FE717
:100DCC000CEAD15392EA0C0F18BF93EA0C0F0AD01D
:100DDC0030F0004C18BF31F0004CD8D180EA010043
:100DEC0000F00040704790F0000F17BF90F0004FDC
:100DFC00084691F0000F91F0004F14D092EA0C0FBE
:100E0C0001D142020FD193EA0C0F03D14B0218BF50
:100E1C00084608D180EA010000F0004040F0FE4096
:100E2C0040F40000704740F0FE4040F44000704732
:100E3C004FF0FF0C1CEAD0521EBF1CEAD15392EAB1
:100E4C000C0F93EA0C0F69D0A2EB030280EA010CA1
:100E5C0049024FEA402037D04FF0805343EA11113A
:100E6C0043EA10130CF000408B4238BF5B0042F198
:100E7C007D024FF4000C8B4224BF5B1A40EA0C003D
:100E8C00B3EB510F24BFA3EB510340EA5C00B3EB6F
:100E9C00910F24BFA3EB910340EA9C00B3EBD10F5D
:100EAC0024BFA3EBD10340EADC001B0118BF5FEAAF
:100EBC001C1CE0D1FD2A3FF650AF8B4240EBC250D8
:100ECC0008BF20F0010070470CF0004C4CEA502099
:100EDC007F32C2BFD2F1FF0340EAC250704740F4E8
:100EEC0000004FF00003013A37E792F0000F00F0DA
:100EFC00004C02BF400010F4000F013AF9D040EA58
:100F0C000C0093F0000F01F0004C02BF490011F4EB
:100F1C00000F013BF9D041EA0C0195E70CEAD153E3
:100F2C0092EA0C0F08D142027FF47DAF93EA0C0FCA
:100F3C007FF470AF084676E793EA0C0F04D14B02AE
:100F4C003FF44CAF08466EE730F0004C18BF31F060
:100F5C00004CCAD130F000427FF45CAF31F000435A
:100F6C007FF43CAF5FE700BF4FEA4002B2F1FE4FA7
:100F7C000FD34FF09E03B3EB12620DD94FEA00234F
:100F8C0043F0004310F0004F23FA02F018BF404228
:100F9C0070474FF00000704712F1610F01D142020F
:100FAC0005D110F0004008BF6FF0004070474FF0C3
:100FBC000000704742000ED2B2F1FE4F0BD34FF03F
:100FCC009E03B3EB126209D44FEA002343F00043B3
:100FDC0023FA02F070474FF00000704712F1610FD6
:100FEC0001D1420202D14FF0FF3070474FF00000A8
:100FFC00704700BF0348044B834202D0034B03B13C
:10100C0018477047B0000020B0000020000000001E
:10101C0005480649091A891001EBD171491002D013
:10102C00034B03B118477047B0000020B0000020FC
:10103C000000000010B5064C237843B9FFF7DAFF27
:10104C00044B13B10448AFF300800123237010BD8F
:10105C00B0000020000000001499000808B5054BF2
:10106C001BB105490548AFF30080BDE80840FFF708
:10107C00CFBF00BF00000000B4000020149900088E
:10108C0008B500211F2006F0F9F80121112006F007
:10109C00F5F80F2006F040F90021112006F0EEF8CB
:1010AC000122014B1A7008BDA801002008B50121CE
:1010BC001F2006F0E3F80121122006F0DFF80F20C4
:1010CC0006F02AF90021122006F0D8F80022014B74
:1010DC001A7008BDA801002008B500224FF0FF339C
:1010EC000121054802F084FB044802F0B5FBBDE881
:1010FC000840034802F04CBEBC010020E000002078
:10110C00AC0100202DE9F0434FF47845F0264FF068
:10111C002C084FF01F09704C704F85B03B46CDE941
:10112C000185009682220021204601F060FC64209B
:10113C0006F0F2F8CDE9018900963B462046822262
:10114C00002101F054FC3B46CDE90185009682223A
:10115C000021204601F04BFC642006F0DDF8CDE9BF
:10116C00018900963B4620468222002101F03FFC7B
:10117C003B464FF0FF378222CDE9018500960021D6
:10118C00204601F034FC4FF47A7006F0C5F8204686
:10119C00002101F0ACFA2046514901F060FE2046D6
:1011AC000121676101F058FE00226423114600936F
:1011BC0020463346019501F0FDFF4A4B4A49204633
:1011CC00236106F0BEFA494B49492046236106F0DB
:1011DC00B8FA2046474901F042FE002667611627FF
:1011EC007122CDE9007620468B23082101F0E2FF25
:1011FC00414B42492046236106F0A3FACDE9007623
:10120C009C2220468A23082101F0D4FF3C4B3D4907
:10121C00204623614FF6FF7806F093FACDE900766D
:10122C002D27C72220468B23082101F0C3FF364B04
:10123C0036492046236106F084FA354B3549204661
:10124C00236106F07EFA344B34492046236106F0C4
:10125C0078FACDE9007820462823B622B32101F094
:10126C00A9FFCDE90078204628234FF48272B321E0
:10127C0001F0A0FF4027AA22204611460295CDE995
:10128C000077274B01F0B3FB264BFA222046CDE921
:10129C0001750097AA2101F0AAFB2046224901F012
:1012AC00DEFD322369220093204601964623A521B8
:1012BC0001F080FF1D4B20460121636101F0CCFD44
:1012CC000A2220461A4B23611A4B196805B0BDE857
:1012DC00F04306F085BA00BFBC01002033DC0008E7
:1012EC00D49C00084300280057990008430055007F
:1012FC005D990008C89C00080A008000B39900089A
:10130C000A00AB00639900080A00D6006E99000829
:10131C000A000101779900080A002C017E99000847
:10132C00B4440108C79A0008E09C0008E007E007F5
:10133C00B9009800000000202DE9F04F4FF0FF3766
:10134C0089B09846BDF848304A4C0293BDF84C30F1
:10135C0081460393149B8B460493159B4649059336
:10136C00169B204606939DF85C30924607939DF899
:10137C0060509DF8646001F072FD012120466761A8
:10138C0001F06AFD64234FF47842CDE9003200226B
:10139C00F0231146204601F00DFF49462046A4F8E3
:1013AC0010B0A4F812A006F0CCF9029B414623829F
:1013BC00039B2046638206F0C4F93049204601F0B5
:1013CC004EFD4FF016086761002771228B23082110
:1013DC002046CDE9008701F0EDFE294B049920460B
:1013EC00236106F0AEF99C228A2308212046CDE920
:1013FC00008701F0DFFE234B05992046236106F0A0
:10140C00A0F9C7228B2308212046CDE9008701F0E3
:10141C00D1FE1D4B06992046236106F092F90799DF
:10142C00052005F02BFF012D1CD13946022005F0BB
:10143C0025FF2946042005F021FFC6F3800110206A
:10144C0005F01CFFC6F340010F2005F017FF06F056
:10145C0001010E2005F012FF322009B0BDE8F04F5B
:10146C0005F05ABF022DE8D10121284605F006FFF0
:10147C003946DFE7BC010020D49C0008C89C00085A
:10148C000A0080000A00AB000A00D60070B50121EA
:10149C000124102005F0A4FE01210F2005F0A0FE70
:1014AC0001210E2005F09CFE0021062005F098FE7F
:1014BC000121052005F094FE0121022005F090FE8B
:1014CC000121042005F08CFE0021142005F088FE7B
:1014DC000021152005F084FE0021162005F080FE69
:1014EC000021182005F07CFE0021172005F078FE65
:1014FC000021022005F0C2FE0121042005F0BEFEF1
:10150C000121052005F0BAFE642005F005FF01213C
:10151C00102005F0B3FE01210F2005F0AFFE0121D4
:10152C000E2005F0ABFE0221132005F059FE01211F
:10153C00132005F0A3FE01211F2005F09FFE0121C1
:10154C001F2005F04DFE0021112005F097FE002113
:10155C00122005F093FE0121112005F041FE01211E
:10156C00122005F03DFE374D06224FF4E13136488E
:10157C0005F09CFF354E2321354802F091F90021EE
:10158C00284602F0D9F8304602F0ECFA2846002141
:10159C00F47001F0ACF82846002102F09FF8FFF738
:1015AC00B1FD0021102005F069FE2A4D00210F200D
:1015BC0005F064FE00210E2005F060FE02221321CE
:1015CC00284602F000FC1921284602F008FC2146AE
:1015DC001F2005F053FE4FF4967005F09DFE002180
:1015EC001F2005F04BFE4FF4967005F095FE21463A
:1015FC001F2005F043FE4FF4967005F08DFE002180
:10160C001F2005F03BFE4FF4967005F085FE214639
:10161C001F2005F033FE4FF4967005F07DFE00217F
:10162C001F2005F02BFE4FF4967005F075FE214639
:10163C001F2005F023FE05F06DFE074B1860074BCD
:10164C00186070BDBC010020DC02002014000020DA
:10165C00E0000020AC01002004020020D400002097
:10166C002DE9F743642300244DF21062104DCDE9AF
:10167C0000322146F023224628466C6101F09AFD87
:10168C000C4FB84600260FFA84F931B238F8023BF9
:10169C004A462846013601F0F6FFF02EF5D101340A
:1016AC00352C07F5F077ECD103B0BDE8F08300BF23
:1016BC00BC01002054E10008000000002DE9F04FAF
:1016CC008DB0CDE908232C9B82461A78002A4BD08A
:1016DC00002206681A70DDE91801FFF76FF90FFA9E
:1016EC0080F9DDE91601FFF769F90FFA80F8DDE9F9
:1016FC000801FFF763F9BDF8A03007B2DDE91A0164
:10170C000193FFF75BF900B200904B464246394615
:10171C00766C5046B047DDE91C23DDE91E01FEF76F
:10172C00FBFC02460B46DDE91801FEF7D7FFDDE9AD
:10173C002023FEF7A9FEB1A3D3E90023FEF7ECFCAE
:10174C000026804689460027DDE9182330463946B5
:10175C00FFF716F940B13046394642464B46FEF784
:10176C00DDFC06460F46EFE7DDE91C23DDE922012F
:10177C00FEF7D2FCDDE91C2306460F46DDE91E010F
:10178C00FEF7CAFC02460B4630463946FEF7A6FF6A
:10179C00DDE91823FEF778FE002206460F46DDE948
:1017AC001601984BFEF7BAFCFFF708F900220FFA66
:1017BC0080F84FF08043DDE91A01FEF7ADFCFFF72E
:1017CC00FDF832460FFA80F93B46DDE91801FEF7C9
:1017DC00A3FC00224FF08043FEF79EFCFFF7EEF8CF
:1017EC0032460FFA80FB3B46DDE90801FEF796FC1A
:1017FC000022844BFEF792FCFFF7E0F8BDF89C202A
:10180C00DAF80030CDE900929B6B01B21C464246DF
:10181C005B465046A04700227A4B30463946FEF7CD
:10182C007BFCFFF7CBF80022764B06B2DDE9080112
:10183C00FEF774FCFFF7C2F8BDF89820DAF8003018
:10184C00CDE9009201B29C6B424633465046A0470C
:10185C001C2005F0B3FC6C4802F081FA002800F063
:10186C00CA8069490AA802F069FA684BBDF9285088
:10187C001A68674BADB21968BDF92A808A4218BF45
:10188C001A60A5F24753B3F5277F624C0BD86FF45F
:10189C00AA7A40F2544208EB0A039BB293429EBFD1
:1018AC0023680133236023685B4F152BC4BF0123CE
:1018BC00236000236FF4F079C8203B6005F02CFD09
:1018CC0040F26A2205EB09039BB293420CD86FF4E9
:1018DC00AA7E40F2544208EB0E039BB293429EBF89
:1018EC00236803F1FF33236023684C4E002BDCBFCD
:1018FC0015232360002322683B60092A36DD4FF054
:10190C00000C32236922CDE9003CA5214623434833
:10191C0001F050FC424B01217361404801F09CFAEC
:10192C00404B41493D48336101F099FA0A22216844
:10193C003A4805F055FF2368013B142B48D8DFE8E3
:10194C0013F0330081009400A800BE00D400E9001D
:10195C00FB000F0126013B01500166017A018E014B
:10196C00A301B801BE01C401D60143020193322385
:10197C0069220093A5214623304601F01BFC284B1D
:10198C0001217361304601F067FA284B2649336117
:10199C00304601F064FA0A222168304605F020FF37
:1019AC002368092BC7DDAAE7012300240593CDE9A1
:1019BC0006341F4B432104931E4B282203931E4BCA
:1019CC001E4802935523CDE900131D4BFFF7B4FCC1
:1019DC006FF434631D4440F2BE33ADB29D420AD85D
:1019EC0040F62552A8F59D739BB2934203D8FFF79E
:1019FC0037FE01233B600DB0BDE8F08FFCA9F1D29E
:101A0C004D62503F0000F03F14000020CC0000203D
:101A1C00D000002000000020DC000020BC010020D1
:101A2C00E007E007A5009800E09C0008B9009800CA
:101A3C006E99000863990008B3990008579900083B
:101A4C005D9900080123CDE906330593B14B552070
:101A5C000493B14B28220393B04B0A2102934323E6
:101A6C00CDE90030AE4BAF48B0E70123022205931D
:101A7C00CDE90632AC4B55210493A64B2B22039394
:101A8C00A64B02934323CDE90031A54B0A21A7486D
:101A9C009CE701234FF0030A0593CDE9063AA44BCA
:101AAC004FF0550B0493A34B28220393A24B4B21CD
:101ABC0002933223A148CDE9003BA14B86E70123D9
:101ACC004FF0040E0593CDE9063E9E4B4FF05509A1
:101ADC0004939D4B282203939C4B1E21029332238B
:101AEC009B48CDE90039964B70E7012305260593F9
:101AFC00CDE906368C4B4FF0550C0493854B2822C0
:101B0C000393864B1921029350239248CDE9003C54
:101B1C00914B5BE7012306200593CDE906308F4BF3
:101B2C00552404938E4B28220393884B0293322323
:101B3C00CDE90034824BA9E7012307220593CDE9B7
:101B4C000632744B55210493864B28220393864B03
:101B5C00864802934323CDE90031714B1E2135E7B2
:101B6C0002234FF0000ACDE9063A012305936A4B94
:101B7C004FF0550B0493674B28220393674B0F21AF
:101B8C00029343237A48CDE9003B654B1EE70123C2
:101B9C0002220593CDE90623764B4FF055090493A9
:101BAC005C4B282203935D4B1E2102934323724806
:101BBC00CDE900395A4B09E70223CDE9063301235D
:101BCC0005936E4B4FF0550E04936D4B28220393E7
:101BDC006C4B1421029333236B48CDE9003E6B4BC5
:101BEC00F4E602230326CDE9063601230593684B60
:101BFC004FF0550C04935B4B282203935A4B3E2118
:101C0C00029343236348CDE9003C454BDEE60222B8
:101C1C000420CDE906200122414B5524CDE90432A4
:101C2C003C4A232103925C4A5C4802924322CDE950
:101C3C0000242822CAE602224FF0050BCDE9062B20
:101C4C00012257483E4BCDE90402444A5521CDE9C7
:101C5C0002323222CDE9002128224E21B6E60222A0
:101C6C004FF0060ACDE9062A0122354B4D48CDE945
:101C7C0004023A4A4FF0550CCDE9023232222D21A2
:101C8C00CDE9002C2822A1E602224FF0070ECDE967
:101C9C00062E012237482A4BCDE904022F4A4FF079
:101CAC005509CDE9023232223021CDE90029282212
:101CBC008CE60022224B3C4807920692D7E7012281
:101CCC001F4B079239480022F7E7002202243848BC
:101CDC001B4BCDE90624CDE90402204A5526CDE95B
:101CEC00023232222321CDE9002628226EE600237F
:101CFC0006210593CDE906312E4B202104932E4B62
:101D0C0003932E4B02935523CDE900132C4B282221
:101D1C002C485BE66E990008B29A0008B39900084B
:101D2C005D99000882990008639900088C99000855
:101D3C00A2990008AD990008B89900089D9900086F
:101D4C0096990008CD990008349A0008D399000898
:101D5C00C5990008DE990008D9990008E799000890
:101D6C00EC990008FD990008059A0008F299000802
:101D7C000D9A0008209A0008169A00083A9A000852
:101D8C00429A00084A9A00082F9A0008279A0008DD
:101D9C00599A0008529A0008699A0008619A00083A
:101DAC00709A0008749A00087C9A0008839A0008BC
:101DBC008B9A0008A59A0008AF9A0008B99A0008F7
:101DCC00939A00089C9A0008002307220593CDE9FA
:101DDC000632064B20210493054B0393054B0293CB
:101DEC005523CDE90013044B91E700BFA59A0008D9
:101DFC00AF9A0008B99A0008BE9A00082DE9F04F76
:101E0C00814689B00620069105F05CFA40B94CF683
:101E1C00010350220093D72105239A4800F0BAFD04
:101E2C00062005F04FFA012808D14DF2106350221C
:101E3C000093D7210523934800F0ACFDB9F16E0F48
:101E4C006FF00903A8BF4FF06E099945B8BF9946CA
:101E5C008D4F8E4B1868484500F00D81069AB4BF23
:101E6C00013000F1FF30002A08BF484618606FF0BF
:101E7C001D036E2200936FF009016FF0950305F0BE
:101E8C009DFDFEF7CDFE0646FEF7A6FA7BA3D3E931
:101E9C000023FEF7F9FA04460D4606F087F9CDE962
:101EAC0002012046294606F0C9F9CDE9040178491A
:101EBC003046FEF701FEFEF78FFA70A3D3E900233C
:101ECC00FEF7E2FA06F002FAFEF7A0FDDFF8E88171
:101EDC00704EB8F800308346013B1BB2306839466F
:101EEC0007934DF2106AFEF7EFFE6B49FEF7E4FD27
:101EFC004FF07E51FEF7DEFDFFF736F8674DCDF85B
:101F0C0004A0604CB5F90020079B009201B263223B
:101F1C00204600F037FCB8F900303068394607939A
:101F2C00FEF7D2FE5C49FEF7C7FDFFF71DF8CDF8B2
:101F3C0004A0B5F90020079B009201B26322204651
:101F4C0000F020FCB8F80030306801331BB2394681
:101F5C000793FEF7B9FE5049FEF7AEFD4FF07E51E8
:101F6C00FEF7AAFDFFF700F8CDF804A0B5F90020A4
:101F7C00079B009201B26322204600F003FC484A02
:101F8C00484B4949C4E90423204605F0DAFBDDE956
:101F9C000201C6F800B0FEF739FD4449FEF794FE85
:101FAC003D49FEF789FDFFF705F81FFA80FAA8F8FE
:101FBC0000A0DDE90401FEF729FD3D49FEF784FE92
:101FCC003C49FEF779FDFEF7F5FF0AF1FF3382B2CB
:101FDC002A801BB23946584604920293FEF774FECF
:101FEC002D49FEF769FD4FF07E51FEF763FDFEF7BC
:101FFC00BBFF4CF6010A049A029B12B2009201B28A
:10200C0063222046CDF804A000F0BCFB30683946B2
:10201C00FEF75AFE2049FEF74FFDFEF7A5FFB8F973
:10202C0000B0CDF804A0B5F900306322009301B2E2
:10203C005B46204600F0A6FB30683946FEF744FEAE
:10204C001549FEF739FD4FF07E51FEF735FDFEF7D1
:10205C008BFFB8F80080CDF804A0B5F9003008F17A
:10206C0001080FFA88F8009301B243466322204618
:10207C0000F088FBEDE609B0BDE8F08F11E7FAA19E
:10208C0046DF913FBC0100200000A0410C00002065
:10209C000000B442D80000200000F04212000020E2
:1020AC0057005300C762C762509900080000EC4209
:1020BC00000018420000AA42100000202DE9F04F49
:1020CC00B8489DB001F08DFEB74C80B1B54801F019
:1020DC00BFFE0646002800F0FD812378012B40F05E
:1020EC00F681FEF7E3FF05F015F9B04B1860247884
:1020FC00012C29D105F00EF9AC4B1B68C01AB0F5B8
:10210C007A7F21D9AA4E3368F3B9A64801F09CFE18
:10211C000546C8B921461F20346005F0AFF83220BF
:10212C0005F0FAF829461F2005F0A8F8322005F032
:10213C00F3F821461F2005F0A1F8322005F0ECF849
:10214C0029461F2005F09AF805F0E4F8994A13681F
:10215C00984220D001331C20136005F02FF8044660
:10216C009549964805F0EDFA0A222146934805F068
:10217C0039FB64230093002341F263021946204685
:10218C0005F01CFC8E4B18608E4B1B68012B02D18A
:10219C000021FFF733FE142005F010F8FEF7FAF8D3
:1021AC00894CDFF86482C4E90001152005F006F8BB
:1021BC00FEF7F0F8C8E90001162004F0FFFFFEF767
:1021CC00E9F8824B824FC3E90001182004F0F6FFB6
:1021DC00FEF7E0F8C7E90001172004F0EFFFFEF767
:1021EC00D9F8D4E900AB7B4A19ADC2E900017A49B0
:1021FC00284605F040FC4FF00009CDE90CAB4FF040
:10220C00000ACDE9069A4FF0000A744BDFF8E0B1F2
:10221C0000244FF6FF76CDE904ABCDE915534FF012
:10222C00000A4FF61F034FF4C042DFF8E0B1CDE9CE
:10223C00103254A2D2E90012CDE91364CDE90A128E
:10224C0052A1D1E9000153A3D3E90023CDE9080140
:10225C00CDE9002312940022614BCDE90E44CDE967
:10226C0002AB6048FFF72AFA284605F0BFFB98E856
:10227C0000035D49284605F0FEFB5C4B44F6492102
:10228C00CDE915534FF4FC63CDE90C89CDE9103140
:10229C003CA2D2E900124FF00008CDE90A123BA192
:1022AC00D1E900014FF000090022514BCDE90801A2
:1022BC00CDE90689CDE9042338A3D3E90023CDE980
:1022CC001364CDE9002312940022454BCDE90E4452
:1022DC00CDE902AB4348FFF7F1F9284605F086FB40
:1022EC003A4B44492846D3E9008905F0C4FB25A2A2
:1022FC00D2E90012404B0D20CDE9155340F2FF738B
:10230C00CDE90A120022CDE9103020A1D1E900015B
:10231C00374BCDE90C89CDE904234FF000084FF081
:10232C0000090022354BCDE90801CDE90023CDE9A8
:10233C00068900222A4BCDE913641294CDE90E4490
:10234C00CDE902AB2748FFF7B9F9284605F04EFB5B
:10235C00D7E900892A49284605F08DFB09A2D2E964
:10236C000012284B43F2A327CDE915534FF47843C1
:10237C00CDE90C894FF000084FF00009CDE910377A
:10238C00002745E0000000000090794000000000AC
:10239C000063B0400000000000C06040000000007E
:1023AC0000206640AC010020A8010020D4000020D1
:1023BC00A001002004020020B4460108DC02002029
:1023CC00A4010020DC0000207801002088010020FE
:1023DC009001002098010020BA460108040000205A
:1023EC0000002440BC010020BF460108050000206D
:1023FC0000001C40C44601080600002000806B4011
:10240C00C9460108070000208001002000806140BF
:10241C00CDE90689DFF80C81CDE90A1233A1D1E9A7
:10242C00000134A3D3E90023CDE90801CDE90478F8
:10243C00CDE90023CDE91364344B00221294CDE98D
:10244C000E44CDE902AB3248FFF738F9284605F0C7
:10245C00CDFA304A30492846D2E9008905F00BFB09
:10246C0026A2D2E90012CDE90C892C4B4FF00008C2
:10247C004FF000094FF4024CCDE9155300274FF6ED
:10248C00E073CDE90689DFF89C80CDE9103CCDE9FD
:10249C000A1216A1D1E900011AA3D3E90023CDE950
:1024AC000801CDE90023CDE913640022174B1294E7
:1024BC00CDE90E44CDE90478CDE902AB1448FFF721
:1024CC00FDF8284605F092FA1DB0BDE8F08FFEF736
:1024DC00D7FD08E6124D2B68012B7FF408AEFEF7F2
:1024EC00E5FD2E6003E600BFAFF3008000000000A6
:1024FC000063B0400000000000707040000000005D
:10250C00009079400000000000207340000024403F
:10251C00BC01002098010020CE46010808000020D4
:10252C00A001002000001C402DE9F04F1F4685B093
:10253C00BDF9383015469A1A82EAE27BABEBE27BA6
:10254C007A1A002AB8BF5242934581460C46BDF810
:10255C003CA0019204DD3A462C461F460D4613461C
:10256C00BC4205DD2A461D46134622463C4617460C
:10257C005A1B002AB8BF52429D42B4BF01234FF0F0
:10258C00FF33A7EB04081FFA88F80FFA88F606EB5E
:10259C00D6760292721000920393BC4220DCD9F8DA
:1025AC00003048461B691E46019B9B45CCBF22460A
:1025BC002A465346CCBF29462146B047009A029B77
:1025CC00D61AB3B21AB2002A009206DA039A08EBB2
:1025DC000306154433B22DB20093013424B2DCE768
:1025EC0005B0BDE8F08F704710B40468A468A44629
:1025FC0010BC604730B4BDF8085004680295246BD9
:10260C00A44630BC604730B4BDF80850046802954D
:10261C00646BA44630BC604770B4BDF90C50BDF877
:10262C0010600468CDE90356A46BA44670BC6047E7
:10263C002DE9F3411C46164605460F460368013C3E
:10264C00BDF82080DB683444984724B22B68CDF861
:10265C00048000941C6A28463B4632463946A04703
:10266C0028462B685B6A02B0BDE8F04118472DE99B
:10267C00F341174604461D460E460368BDF82080FC
:10268C00DB689847CDE9007822686B1E3344156AE5
:10269C0020461BB23A463146A847204623685B6A5F
:1026AC0002B0BDE8F04118472DE9F3471E46036818
:1026BC000C46DB6805461746BDF92880BDF82C9002
:1026CC0098472644B4422A680BDACDF80090D2F829
:1026DC0018A0214643463A4628460134D04724B236
:1026EC00F0E72846536A02B0BDE8F047184713B527
:1026FC000191B0F90E1002680091946B0022B0F9B0
:10270C000C301146A04702B010BD2DE9F34704462A
:10271C00884616461D460368BDF82C70DB68BDF96B
:10272C002890984723680097D3F81CA032462B4674
:10273C0041462046D047236809F1FF3200973244C6
:10274C00D3F81CA041462B46204612B2D047236832
:10275C000097D3F818A032464B4641462046D04746
:10276C002368691E009741449D6920464B463246BA
:10277C0009B2A847204623685B6A02B0BDE8F0475F
:10278C00184770472DE9F7439942904607460E4685
:10279C001C46BDF92850BDF82C90026813D1A845F1
:1027AC00C2BF4346A8461D46CDF828906B1C146B3F
:1027BC00A3EB0803424631463846A4461BB203B08D
:1027CC00BDE8F0436047A8450AD19942C2BF0B4609
:1027DC0026461C46CDF82890631C9B1B546BE9E7DE
:1027EC00D3689847CDE900593B6838461D6A424684
:1027FC0023463146A84738463B685B6A03B0BDE8C0
:10280C00F043184701F0030102298176B0F9083032
:10281C00B0F90A2003D0032904D0012902D0838106
:10282C00C28170478281C3817047000030B501813D
:10283C00002481814FF0FF31054D4281C281054A50
:10284C00446005600461C0E905120477046230BD80
:10285C00DC4B0108010100012DE9F04F1D464FF042
:10286C0000088BB0BDF858308A460493ABB2C3F164
:10287C000104C3EBC3335B001BB20793BDF95430A7
:10288C009DF8501001339BB2059393B20693059BB0
:10289C000646039301F0010320B20893DDF818B04B
:1028AC0001F0020302900993A84570DA029B002BF9
:1028BC006BDB079B6F1E02339BB21AB20792029A14
:1028CC003FB21A4413B20293029B08F101081FFA9B
:1028DC0088F903EB49040FFA89F8013423B2474510
:1028EC00029327DB089B8BB1049834680699059BEF
:1028FC000090BAB2A06903EB42038A1A09EB0A01F1
:10290C0004461BB212B209B23046A047099B8BB1E8
:10291C000699059B049CBAB2306803EB4203009401
:10292C008A1AAAEB09011BB2D0F8189012B209B29C
:10293C003046C847BD421ED0089B6BB1049A336821
:10294C0000920AEB0501D3F818900FFA8BF2BDF93F
:10295C000C3009B23046C847099B63B1049A3368FE
:10296C00AAEB050100929D690FFA8BF2BDF90C30B0
:10297C0009B23046A8470BF1FF331FFA83FB039BC8
:10298C003D4602339BB203938EE72F469CE70BB078
:10299C00BDE8F08F2DE9F0431F46044616460D4660
:1029AC00036885B0DB68BDF830809847BAB22168FF
:1029BC005300CDF80080B21A0133D1F8189020469C
:1029CC0029461BB212B2C847032300222046CDE988
:1029DC000032CDF808803B4632462946FFF73CFFD3
:1029EC00204623685B6A05B0BDE8F04318472DE923
:1029FC00F04F0026344689B09A46BDF94C30BDF9EB
:102A0C0048800593BDF85030CDE903120693036856
:102A1C000546DB68984718F1070348BF08F10E0319
:102A2C004FEAE30B0196019A049B13441BB20293E9
:102A3C00059ABDF904309A4226DD4FF000090AEBE5
:102A4C00060307930FFA89F398451FFA89F116DDEF
:102A5C004A0705BF079ADB106400D45C18BFE4B2C8
:102A6C00230609D5039B029A19442B6809B21B69EA
:102A7C0028461F46069BB84709F10109E2E7019B6E
:102A8C005E4401330193CEE728462B685B6A09B09C
:102A9C00BDE8F04F184700002DE9F04F91B01746F4
:102AAC009946026ABDF86830044605910293BDF858
:102ABC006C809DF870609DF87450002A40F0B880CE
:102ACC00B0F90C308B4240F33781B0F90E30BB4279
:102ADC0040F33281062303FB0613002B40F32C81B9
:102AEC0007EBC503002B40F32781037F33B9B9F102
:102AFC00AF0F84BF09F101095FFA89F923682046F9
:102B0C00DB68984705230993002304938C4B09EB4E
:102B1C0089094B440C931FFA87FA049A0C9B4FF0CB
:102B2C0000099B5CB2B20792BDF814200693039285
:102B3C00BDF810300399079A02FB031212B20892E7
:102B4C0008220B441BB20A920B93069A2368D207F5
:102B5C004AD5012E1FFA89F239D1012D37D1D3F87C
:102B6C0010B0029B524412B20B992046D847069BD8
:102B7C0009F101095B0806930A9B4FFA89F9013B9D
:102B8C0013F0FF030A93E0D1049B01335BB204936F
:102B9C00099B013B13F0FF030993BED1029B4345F4
:102BAC000ED0012E236832D1012D30D10399CDF8EE
:102BBC00008005319D693A46082309B22046A84792
:102BCC00204623685B6A11B0BDE8F04F184705FB3F
:102BDC0002A2029901910095D3F814B012B23346B7
:102BEC0008992046D847C2E7029A4245BFD0012E29
:102BFC001FFA89F206D1012D04D1D3F810B052443A
:102C0C004346B0E705FB02A2CDF80480E3E7079A40
:102C1C00ED0002EB8201039ACDF804800A441146C0
:102C2C0000955D693A46334609B22046A847C7E786
:102C3C00137A5168A9EB030912685FFA89F90D92AE
:102C4C0031F8392001EBC90303929A78012E0792CF
:102C5C00DA7893F906B00B9293F90520089201D813
:102C6C00012D4DD9BDF9203006930FFA8BF3049347
:102C7C004FF00009CA46C84623682046DB689847CF
:102C8C00BBB209935B440F930B9B984598D2049B62
:102C9C00099A434403FB05231BB20A9300274B46B6
:102CAC000F9A424412B20E92079A97423BD25A1C88
:102CBC00D2B25B070C9207D1039B03990D9A013397
:102CCC009BB212F801A003931AF0800F10D0012EC2
:102CDC002268BDF8141017D1012D15D1089BD2F81C
:102CEC0010B019443944029B0E9A09B22046D847B9
:102CFC004FEA4A0A01375FFA8AFAFFB20C9BD3E714
:102D0C00002304930693B3E7069B20463B4403FB46
:102D1C000611029B09B2CDE900533346D2F814B028
:102D2C000A9AD847E4E7079B08F1010899445FFA2F
:102D3C0089F95FFA88F8A7E711B0BDE8F08F00BFFA
:102D4C00D3460108F0B5026A85B004460B46002A4A
:102D5C0034D10A2908D10282438A427E03EBC20392
:102D6C006382012005B0F0BD0D29FAD0E17E007E12
:102D7C00657E71B10621B4F9106001FB0061B4F9F4
:102D8C000C60B142C1BFB4F91210228201EBC50232
:102D9C006282E28ACDE902050192A28AB4F910108E
:102DAC0000922046B4F91220FFF776FE237E228A89
:102DBC0003EB430302EB43032382D2E70A2907D137
:102DCC0000230382937A417E428A01FB0323C7E7E7
:102DDC000D29C6D0157AA942C3D3517A9942C0D3D2
:102DEC005D1B5168EDB201EBC505AF782FB3E978E7
:102DFC0019B3E17E007E667E91B195F905103944D8
:102E0C00B4F9107000FB0171B4F90C70B94207DD14
:102E1C0000272782B4F91210927A02FB0612628202
:102E2C00E28ACDE902060192A28AB4F9101000924E
:102E3C002046B4F91220FFF72FFE2979237E228A2F
:102E4C0001FB0323B8E7002908BF0121002A08BFB2
:102E5C0001220176427670470A46FFF7F4BF036AF7
:102E6C0029B113B9438A0633438201627047002BA0
:102E7C00FBD0438A063BF7E7012104F0FFB90021A0
:102E8C0004F0FCB910B50446002190F9000004F0E0
:102E9C00F5F994F900000121BDE8104004F0EEB9F9
:102EAC0002F1FF3C4160DCF1000141EB0C0181724D
:102EBC0002720BB9437205E0012BFBD0022BF9D047
:102ECC00032BF7D0704713460A46232100F068BD48
:102EDC0038B5044612B209B21D46FFF7A7FC002212
:102EEC000B4B84F8382023609DF91830E26384F88A
:102EFC0039309DF91030A4F8402084F83A309DF90F
:102F0C001430626484F83B306562204638BD00BFE3
:102F1C002C4C010830B5044685B09DF9245002951F
:102F2C009DF92050CDE90035024BFFF7D1FF20462B
:102F3C0005B030BD08020020F0B50446444E90F9AF
:102F4C003A00002918BF0E46002885B0174607DB4B
:102F5C00012104F045F9012194F93A0004F08EF9AD
:102F6C00012194F93B0004F03BF9012194F93B0059
:102F7C0004F084F994F83850A5BB3B463146012245
:102F8C0001A8FFF78DFF01AB03CBE16219889B7899
:102F9C00A062218684F8323067632321606A00F0D6
:102FAC007FFC94F9390000281ADB012104F018F990
:102FBC00012194F9390004F061F9642004F0ACF9B2
:102FCC00002194F9390004F059F9642004F0A4F9B3
:102FDC0094F93900012104F051F9C82004F09CF94E
:102FEC0005B0F0BD012D1BD1294694F9240004F045
:102FFC00F7F8002194F9240004F040F9294694F9DB
:10300C00260004F0EDF894F92600002104F036F9BE
:10301C0094F925000028C4DB002104F0E1F8C0E796
:10302C00012194F9250004F0DBF894F92500012125
:10303C0004F024F994F926000028B2DB012104F0F5
:10304C00CFF8012194F9260004F018F9A9E700BF84
:10305C000024F4002DE9F041054688461446002A68
:10306C003CD090F838300F0ACEB26BB914F1FF3463
:10307C0034D339460122686AFFF725FF0122314615
:10308C00686AFFF720FFF1E7012B1DD114F1FF3423
:10309C0024D3474610263B044CBF0121002195F94F
:1030AC00240004F0EBF8013E012195F9260004F010
:1030BC00E5F87F00002195F92600B6B2BFB204F006
:1030CC00DDF8002EE7D1E1E7B74207D0253514F142
:1030DC00FF3403D32846FFF7D5FEF8E7BDE8F081AF
:1030EC002DE9F3411D460446BDF92060BDF824705E
:1030FC00B3B20093036892B2D3F84C8089B2ABB2EE
:10310C00C0473946204606FB05F202B0BDE8F04147
:10311C00FFF7A0BF2DE9F341BDF92040002B46D0AD
:10312C00002C44D0002B05DA9BB2013119445B42D0
:10313C0009B21BB2B0F90C608E4238DD002C05DAF6
:10314C00A4B201322244644212B224B2B0F90E503D
:10315C0095422CDD01EB03081FFA88F808F1FF3CBF
:10316C000FFA8CFCBCF1000F21DB02EB040E1FFAF2
:10317C008EFE0EF1FF373FB2002F18DB0029BCBFCB
:10318C0000210FFA88F3002ABCBF00220FFA8EF43C
:10319C006645DCBF731A1BB2BD42D8BFAC1ABDF872
:1031AC002450D8BF24B2CDE90045FFF799FF02B0F7
:1031BC00BDE8F0812DE9F74380460E461746BDF970
:1031CC002850BDF82C901C46002B52D0002D50D00E
:1031DC00002B05DA9CB201362644644236B224B286
:1031EC00B8F90C30B34244DD002D05DAADB201372D
:1031FC002F446D423FB22DB2B8F90E20BA4238DDE1
:10320C0006EB040E1FFA8EFE0EF1FF3000B2002802
:10321C002FDB07EB050C1FFA8CFC0CF1FF3109B20C
:10322C00002926DB002EBCBF00260FFA8EF4002FDF
:10323C00BCBF00270FFA8CF58342DCBF9B1B1CB272
:10324C008A42D8F80030DCBFD51B2DB24046DB6873
:10325C00984723464046CDE900593A463146FFF798
:10326C003FFF4046D8F800305B6A03B0BDE8F0433E
:10327C00184703B0BDE8F0832DE9F341171E06464D
:10328C000C461D46BDF8208033DBB0F90E30BB4236
:10329C002FDD002D2DD005DAADB201342C446D425A
:1032AC0024B22DB2B6F90C30A34222DD601980B2E3
:1032BC00411E09B200291CDB002CBCBF002405B246
:1032CC008B42DCBF1B1B1DB233683046DB68984752
:1032DC00012330460093CDF804802B463A46214614
:1032EC00FFF7FEFE304633685B6A02B0BDE8F04182
:1032FC00184702B0BDE8F0812DE9F3410F1E0646D8
:10330C0014461D46BDF8208031DBB0F90C30BB42B1
:10331C002DDD002D2BD005DAADB201342C446D42DD
:10332C0024B22DB2B6F90E30A34220DD601980B262
:10333C00421E12B2002A1ADB002CBCBF002405B2BC
:10334C009342DCBF1B1B1DB233683046DB689847C9
:10335C003046CDE90058012322463946FFF7C0FE1E
:10336C00304633685B6A02B0BDE8F041184702B0E2
:10337C00BDE8F081002A73B526DBB0F90E4094420B
:10338C0022DD002B20D005DA9BB2013119445B42BF
:10339C0009B21BB2B0F90C408C4215DDCE18B6B296
:1033AC00751E2DB2002D0FDB0029BCBF002133B2DE
:1033BC00AC42D8BF631ABDF81840D8BF1BB20194F9
:1033CC0001240094FFF78CFE02B070BD73B5002988
:1033DC0026DBB0F90C408C4222DD002B20D005DA24
:1033EC009BB201321A445B4212B21BB2B0F90E40CE
:1033FC00944215DDD618B6B2751E2DB2002D0FDB1A
:10340C00002ABCBF002233B2AC42D8BFA31ABDF80D
:10341C001840D8BF1BB2CDE900340123FFF760FE82
:10342C0002B070BD10B590F8383086B0044663B960
:10343C0003AB00F1280207CA83E80700059A232191
:10344C0000920CCB606A00F053FA06B010BD10B5B8
:10345C000446FFF7E7FF94F93A00002803DBBDE8C8
:10346C001040FFF70CBD10BD90F838301BB923216C
:10347C00406A00F077BA704710B5044690F93A00EC
:10348C00002801DBFFF7F8FC2046FFF7EDFF10BD2D
:10349C0070B590F8383004460E4623B90122406AC4
:1034AC00FFF711FD70BD012B19D1082533064CBF58
:1034BC000121002194F9240003F0E0FE012194F98C
:1034CC00260003F0DBFE013D002194F92600760076
:1034DC0003F0D4FE15F0FF05F6B2E7D1E2E7253094
:1034EC00BDE87040FFF7CEBCF8B504460D46164655
:1034FC001F46FFF797FF94F93A00002801DBFFF70E
:10350C00BEFC94F93B00FFF7BAFC29462046FFF7B6
:10351C00BFFF94F93B00FFF7AFFC0025AF4205DD80
:10352C00715D2046FFF7B4FF0135F7E794F93A00D7
:10353C00002801DBFFF7A0FC2046FFF795FFF8BD44
:10354C00F8B504460D4616461F46FFF76BFF94F977
:10355C003A00002801DBFFF792FC94F93B00FFF7DF
:10356C008EFC29462046FFF793FF94F93B00FFF7AA
:10357C0083FC0025AF4205DD715D2046FFF788FF17
:10358C000135F7E794F93A00002801DBFFF774FCEA
:10359C002046FFF769FFF8BD38B504460D4690F993
:1035AC003B00FFF76CFC20462946FFF771FF94F9AE
:1035BC003B00BDE83840FFF75FBC70B50D460368B3
:1035CC000446DB68984755B194F840102046FFF745
:1035DC00E3FF23682046BDE870405B6A184794F807
:1035EC004110F3E770B590F8383004460D4653B9E6
:1035FC000122090A406AFFF766FC0122E9B2606AFF
:10360C00FFF761FC70BD012B19D110262B044CBFA8
:10361C000121002194F9240003F030FE012194F9DA
:10362C00260003F02BFE013E002194F9260003F046
:10363C0025FE6D0016F0FF06ADB2E7D1E2E72530AE
:10364C00BDE87040FFF71EBC73B5002904461D464B
:10365C0017DBB0F90C308B4213DD002A11DBB0F90B
:10366C000E3093420DDD012306680093F66C92B286
:10367C0089B2B0472946204602B0BDE87040FFF73A
:10368C00B1BF02B070BD2DE9F3410E1E04461546C4
:10369C001F4620DBB0F90C30B3421CDD002A1ADBCC
:1036AC00B0F90E30934216DD0368DB6898470123AE
:1036BC0022680093D2F84C80B1B2AAB22046C0471F
:1036CC0020463946FFF78EFF204623685B6A02B01E
:1036DC00BDE8F041184702B0BDE8F08107B501F034
:1036EC0003010229817616D0032916D001290DD0A9
:1036FC0048238DF807300A4BC3600DF107020123F4
:10370C003621FFF7F1FE03B05DF804FB28238DF89A
:10371C000730044BF0E78823EBE7E823F7E700BF1B
:10372C00F00040014001F000002300291A4614BFAC
:10373C0021212021FFF7D8BE0022F8B50546144BF5
:10374C00914208BF1946FFF7F7FB95F93930002B6A
:10375C0008DA002328461A460121FFF7C5FE9620F9
:10376C0003F0DAFD0B4C217879B16678A71C06F0D2
:10377C007F0423463A462846FFF7E2FE33063C44D4
:10378C00F1D5962003F0C8FDEDE7034BEB60F8BDD7
:10379C0000366E017C4C0108F00040012DE9F0412F
:1037AC0005460F469046BDF818405E1E0E44013C7F
:1037BC002A211444B6B2FFF7EFFE39462846FFF72C
:1037CC0011FF31462846FFF70DFF28462B21FFF746
:1037DC00E3FEA4B241462846FFF704FF21462846E3
:1037EC00FFF700FF2846BDE8F0412C21FFF7D4BEBF
:1037FC0013B50446CDE900230B464FF4A072F0211B
:10380C00FFF788FB2046024B236002B010BD00BFBF
:10381C00F44C0108232970B504461BD800230C2551
:10382C0005FB03F6A65FD8B2B1420DD00133042BD1
:10383C00F6D1012A0CD100230C2505FB03F2A65E60
:10384C00D8B2013601D1A15270BD0133042BF4D191
:10385C001846F9E70420F7E770B503464FF6FF72F8
:10386C00012100250C4E00F130041A805E601972A3
:10387C0099725D720C33A342F7D1084B0286998E74
:10388C00A0F89010D98EA0F892105B8EA0F896201C
:10389C00A0F8943070BD00BF00093D00D04F010866
:1038AC00232970B505460E4621D80122FFF7B2FF39
:1038BC00032804461BD8232E0BD0B5F996300133C0
:1038CC0007D10121304603F08BFC0121304603F077
:1038DC00D5FC0C20002300FB045085F88530837A3E
:1038EC00427A416805F1340003F0D8F82E8670BD99
:1038FC0082B0F8B5232906AC06460F4684E80C00C6
:10390C002CD80122FFF786FF0328054626D80C2465
:10391C0004FB0064079BBDF8202063609DF82030F9
:10392C0022815A1E53425341232FA3720BD0B6F956
:10393C009630013307D10121384603F051FC0121A7
:10394C00384603F09BFC0C2303FB05656168AB7ADE
:10395C006A7A06F1340003F0A1F83786BDE8F84026
:10396C0002B070472329F0B516D803464FF6FF7501
:10397C0001220027094E00F13004B3F900C08C4538
:10398C0004D11D805E601A729A725F720C33A3426E
:10399C00F3D14FF6FF730386F0BD00BF00093D0065
:1039AC0070B586B08DF80F200022232905460C46F1
:1039BC001E468DF8172039D8B0F93030994212D004
:1039CC00FFF728FF032803D99DF8170006B070BD38
:1039DC000C2303FB0050837A427A416805F13400D2
:1039EC0003F05CF82C86232C07D0B5F99630013304
:1039FC0003D10021204603F041FC4FF47A730DF102
:103A0C00170200930DF10F01012305F1340003F0AF
:103A1C0059F9232CD8D0012ED6D1B5F996300133D3
:103A2C00D2D13146204603F029FCCDE71046CDE734
:103A3C002DE9F04186B0ADF80E2000222329044672
:103A4C000D461F46ADF8162054D8FFF7E3FE0328A9
:103A5C00064604D9BDF8160006B0BDE8F081B4F9ED
:103A6C00303004F134089D4209D00C2101FB004197
:103A7C0040468B7A4A7A496803F010F825860C2365
:103A8C0003FB06439B7A33B1BDF80E20130243EAC5
:103A9C001223ADF80E30232D07D0B4F99630013334
:103AAC0003D10021284603F0E9FB4FF47A730DF1A2
:103ABC00160200930DF10E010223404603F002F9A9
:103ACC00232D09D0012F07D1B4F99630013303D13E
:103ADC003946284603F0D2FB0C2303FB0644A37A99
:103AEC00002BB7D0BDF81620130243EA1223ADF811
:103AFC001630AFE71046AFE70148FFF7ADBE00BF89
:103B0C00080200200122024B1B681A70704700BF8C
:103B1C00A002002070B583B28CB28842CCBF1D1BB2
:103B2C00E51A96B29042CCBF9B1BF31A2DB2914270
:103B3C001BB2B4BF341BA41B9D4224B206DCA542AD
:103B4C0002DC0844401070BD9D4203D1A34201DC4D
:103B5C001044F7E711444810F5E713460A462321B1
:103B6C00FFF766BF10B5044623211348FFF798FEF4
:103B7C000121607803F034FB6078012103F07EFBB7
:103B8C00A078FF2812D0002103F02AFBA07822286D
:103B9C000ED80A4B33F91030013308BF4FF0FF3009
:103BAC000322074903F0E8FE064B1C60012010BD00
:103BBC004FF0FF30F4E700BF08020020D04F01089F
:103BCC00113B0008A00200202DE9F04F03788BB0C8
:103BDC000446002B00F0828003F09CFBE368064651
:103BEC00C31A022B7AD904AD00230122514928466D
:103BFC00FFF756F995E8070007AB83E80700099A29
:103C0C00232100920CCB4C48FFF772FE0021607808
:103C1C0003F034FB0123B12223214748FFF7C0FEF8
:103C2C000122C1214448FFF798FF0122C5109121C0
:103C3C004148FFF792FF05F6FF75A5EBE005B5F5DA
:103C4C00C87F3FDB012291213B48FFF786FF012211
:103C5C00D1213948FFF781FF0122912140F3CF098F
:103C6C003548FFF77AFF0122D12140F3CF083248C3
:103C7C00FFF773FF012240F3CF0B91212E48FFF782
:103C8C006CFF40F3CF070122D0212B48FFF765FFD3
:103C9C000122039000212848FFF75FFF0121824693
:103CAC00607803F0EBFA23212348FFF75BFE002D2D
:103CBC00039B0CDA00232381A378FF2B0ED0002367
:103CCC0023700BE00027BB46B846B946DBE7B5F5D9
:103CDC00C87F06DA00234A2D2381EDDD0BB0BDE849
:103CEC00F08F43F3CF02258159464846FFF712FF68
:103CFC00394605464AF3CF024046FFF70BFFE17801
:103D0C00E660012910D040F6FF7249B1C5F57F631A
:103D1C00022903F10F030AD0121AA380E280DDE717
:103D2C00121AA280E580D9E7A580E080D6E7A080B2
:103D3C00E380D3E780841E000802002038B50D46CE
:103D4C0004460846FFF740FFB5F90410B5F9062004
:103D5C00B5F9083021806280A380204638BD10B5AB
:103D6C000446FFF731FFB4F90800B0F5C87FB4BFC3
:103D7C000020012010BD0846114603F031BA08B5E9
:103D8C00C07A03F09FFA003018BF012008BD000074
:103D9C00034A002102600A22C0E90112704700BFE9
:103DAC004C4D0108002310B583720368C1721B6867
:103DBC000446984718B1A37A43F00303A37203F0A7
:103DCC00A9FA606010BD38B504460D4603685B68FF
:103DDC00984729462046BDE83840FFF7E3BF0181EC
:103DEC00704738B5837A044623F004038372036862
:103DFC001B689847A37A0546C3F3400398420AD040
:103E0C0003F088FAA37A606083F00203A372A07AAD
:103E1C00C0F3800038BD03F07DFA6368C01A2389B3
:103E2C009842F4D3A37A03F001039D42EFD003F040
:103E3C0071FAA37A606083F0010343F00403A37268
:103E4C0003F068FAE060E2E7807A00F00100704766
:103E5C00807AC30754BFC0F380000020704710B5B0
:103E6C004FF480330122022494B0CDE90A230021BF
:103E7C00CDE911434FF4E0130AA80C910E92139361
:103E8C0001F0E8FB00B1FEE70F23CDE905344FF458
:103E9C0080630790CDE90830214605A801F0B2FDFA
:103EAC0000B1FEE7122301934FF40043CDE9033038
:103EBC0001A801F063FE00B1FEE714B010BD0000D4
:103ECC00002103E00B4B5B58435004310A480B4B69
:103EDC0042189A42F6D30A4A02E0002342F8043B05
:103EEC00084B9A42F9D302F0FDFE04F013F803F0EC
:103EFC00DFFD70474054010800000020B000002096
:103F0C00B000002044050020FEE702F063BB7047C0
:103F1C000928034603D9222808D8024601E000F1FB
:103F2C001402084931F91200421C0AD1242B06D084
:103F3C00252B0CBF4FF481704FF0FF30704740F2CF
:103F4C0001107047D04F01087047000038B50E4B78
:103F5C00054618784FF47A73B3FBF0F30B4A1068EC
:103F6C00B0FBF3F000F0E2FB044658B90F2D09D872
:103F7C00024629464FF0FF3000F082FB2046044BEE
:103F8C001D6038BD0120FCE7240000203C0000200F
:103F9C0028000020074A08B51368032043F01003DB
:103FAC00136000F05BFB0020FFF7D0FFFFF7CCFFA6
:103FBC00002008BD00200240034A044B11681B7806
:103FCC000B441360704700BF300500202400002014
:103FDC00014B1868704700BF30050020F7B500256D
:103FEC0004460E460195FFF7F3FF236807469A68CF
:103FFC00D20508D50120A36A84F8245043F020038D
:10400C00A36203B0F0BD5A68D50503D4DB6A13F480
:10401C00700F3BD03A4B02201D6801F027FE23683D
:10402C00384A1969B5FBF0F01142374A4FD1DD68B7
:10403C0036490D424BD11969114259D1DA68344BCA
:10404C001A4214BF2923142303FB00F5019BAB4236
:10405C0020D2731C05D086B1FFF7BAFFC01BB0424B
:10406C000BD8019B01330193F0E7701C0FD026B1E4
:10407C00FFF7AEFFC01BB04208D9A36A032043F080
:10408C000403A362002384F82430BAE7226813687F
:10409C009907EAD56FF0120322681360A36A43F400
:1040AC000073A362936803F46023B3F5602F25D1EA
:1040BC00237B1BBBA36A23F48073A362A06A10F456
:1040CC0080501BD1A36A43F00103A36299E71969DD
:1040DC00114203D1D9680E4A11420BD019690D4A0D
:1040EC00114209D1DB68134214BFFC235423ABE704
:1040FC002923A9E75423A7E7FC23A5E7002080E7A1
:10410C003C00002024499224922449122449920014
:10411C0092244900499224000368D86C704700002F
:10412C00002373B5019390F82430012B6DD001233B
:10413C004D6880F82430062D026805EB85030C6869
:10414C0023D81F26556B053B9E4025EA060504FA2D
:10415C0003F32B435363092C8B6804EB44054FF09A
:10416C0007012AD9D6681E3DA94026EA0101AB40B9
:10417C000B43D360A4F11003012B26D9002300229A
:10418C0080F82420184602B070BD0C2D4FF01F058E
:10419C0009D8166B233B9D4026EA050504FA03F368
:1041AC002B431363D7E7D66A413B9D4026EA0505AE
:1041BC0004FA03F32B43D362CDE71469A94024EA34
:1041CC000101AB400B431361D8E7114B9A4216D156
:1041DC0093681B02D2D49368102C43F400039360B1
:1041EC00CCD10C4B0C4A1B68B3FBF2F20A235343A1
:1041FC000193019B002BC1D0019B013BF8E7836A23
:10420C0043F0200383620123B9E70223BAE700BF1E
:10421C00002401403C00002040420F00806A70479F
:10422C00002373B50193036804469A68D20702D53C
:10423C00002002B070BD9A6842F001029A60124BE5
:10424C00124A1B68B3FBF2F30193019BC3B9FFF74E
:10425C00BFFE064623689D6815F00105E8D1FFF7FF
:10426C00B7FE801B0228F5D9A36A84F8245043F0CA
:10427C001003A362E36A012043F00103E362D8E771
:10428C00019B013BE0E700BF3C00002040420F00D7
:10429C0090F8243010B5012B044654D0012380F83B
:1042AC002430FFF7BDFF002849D1A36A274A23F425
:1042BC00407323F0010343F48073A3622368934299
:1042CC0004D123494A6812F4702F2ED1A26A22F429
:1042DC008012A2625A68520541BFA26A22F440526F
:1042EC0042F48052A262A26A12F480521CBFE26AAB
:1042FC0022F00602E262002284F824206FF002020F
:10430C001A609A6802F46022B2F5602F13D10F4A3A
:10431C00934205D1A2F58062526812F4702F0AD133
:10432C009A6842F4A0029A6010BDA26A42F480120C
:10433C00A2624A68CFE79A6842F48012F3E700233E
:10434C0084F82430F0E70220EEE700BF002801409B
:10435C000024014038B5036804469A68D20701D49A
:10436C00002038BD9A6822F001029A60FFF730FEF7
:10437C00054623689B68DB07F2D5FFF729FE401B37
:10438C000228F6D9A36A012043F01003A362E36A62
:10439C0043F00103E362E4E770B50446002870D0F3
:1043AC00836A23B9C36280F8243003F095FB20465E
:1043BC00FFF7D0FFA36A13F0100FA36A63D1002894
:1043CC0061D1E16923F48853626823F0020343F05E
:1043DC0002030A43A168A362237BB1F5807F42EA02
:1043EC00430237D0012914BF06464FF48076257D51
:1043FC00012D06D183BBA369013B46EA433545F445
:10440C0000662368B1F5807F5D6825F4694545EA4F
:10441C0006055D609E681E4D05EA060545EA020527
:10442C009D6001D0012920D1216901390905DD6A7E
:10443C0025F470052943D9629968164B0B409A42B2
:10444C0015D10023E362A36A23F0030343F00103B5
:10445C00A36270BD0E46CAE7A36A43F02003A362B1
:10446C00E36A43F00103E362CBE70021DFE7A36AD1
:10447C0023F0120343F01003A362E36A43F0010339
:10448C00E3620120E5E743F01003A362F9E700BF04
:10449C00FDF7E1FFFE0E1FFF38B50446002850D093
:1044AC00836A43F002038362FFF754FF054600283A
:1044BC0042D16FF01F02236823481A605968234ABF
:1044CC000A405A609968224A0A409A60DA6802F0F7
:1044DC007F42DA601A6902F040421A6159691D4A3A
:1044EC0011405961996911409961D9691140D9619B
:1044FC00196A11401962596A11405962996A0A4045
:10450C009A62DA6A02F07F42DA62DA6A02F07F4279
:10451C00DA621A6B02F040421A635A6B02F04042A4
:10452C005A63996B014099639A6B02409A632046D7
:10453C0003F004FBE562A562002384F824302846CE
:10454C0038BD0125FBE700BF0000C0FF00003FFFA6
:10455C00F00601FF00F0FFFF90F8243010B5012B9E
:10456C00044611D0012380F82430FFF7F3FE38B94C
:10457C00A36A23F4885323F0010343F00103A362DD
:10458C00002384F8243010BD0220FCE7002373B50F
:10459C00019390F824300446012B5AD0012380F863
:1045AC002430FFF7D7FE0546002832D1A36A02203B
:1045BC0023F4885323F0020343F00203A362264B37
:1045CC001E6801F053FBB6FBF0F040000190019B1C
:1045DC001BBB2046FFF724FE2268936843F00803B8
:1045EC009360FFF7F5FC064623689A68120718D407
:1045FC009A6842F004029A60FFF7EAFC06462368C8
:10460C009B685B071FD4A36A23F0030343F00103E9
:10461C00A362002384F8243012E0019B013B019338
:10462C00D5E7FFF7D5FC801B0A28DDD9A36A012545
:10463C0023F0120343F01003A362002384F8243008
:10464C00284602B070BDFFF7C3FC801B0A28D6D9E0
:10465C00ECE70225F4E700BF3C000020074A00020B
:10466C00D36800F4E06023F4E0631B041B0C1843D4
:10467C0040F0BF6040F40030D060704700ED00E0C7
:10468C00174B70B5DC684FF0FF36C4F30224C4F14D
:10469C000705042D04F1040328BF0425062B98BF3D
:1046AC00002406FA05F588BF033C21EA0501A14068
:1046BC0006FA04F422EA0403002843EA0103A8BF23
:1046CC0000F160404FEA0313B8BF064ADBB2ABBF40
:1046DC0000F5614000F00F0080F80033135470BDFA
:1046EC0000ED00E014ED00E0002808DB0123420996
:1046FC0000F01F0003FA00F0014B43F82200704752
:10470C0000E100E000280DDB0122430900F01F004E
:10471C0002FA00F0044A203342F82300BFF34F8F13
:10472C00BFF36F8F704700BF00E100E00138B0F1BC
:10473C00807F0AD2F021064B064A586082F823107B
:10474C000020072298601A6070470120704700BF54
:10475C0010E000E000ED00E0002809DB0122430935
:10476C0000F01F0002FA00F0024A603342F8230006
:10477C00704700BF00E100E0704708B5FFF7FCFF91
:10478C0008BD000008B590F82130022B03D004239B
:10479C008363012008BD03681A6822F00E021A60B8
:1047AC001A6822F001021A60174A93421CD0143284
:1047BC0093421BD0143293421AD0143293421AD023
:1047CC00143293421AD0143293420CBF4FF480131C
:1047DC004FF080730D4A53604FF480730384436B26
:1047EC007BB198470020D5E70123F3E71023F1E7CD
:1047FC004FF48073EEE74FF48053EBE74FF48033C4
:10480C00E8E71846C6E700BF080002400000024077
:10481C0090F82100704700002DE9F74F0024264640
:10482C00604BDFF894C1DFF894E10A6832FA06F5C0
:10483C0002D103B0BDE8F08F4FF0010808FA06F87A
:10484C0002EA0802904577D14D68122D00F09F8046
:10485C007BD8022D00F0988070D8002D00F081805C
:10486C00012D00F08F804FF00F09FF2A98BF824670
:10487C004FEA860592BFD0F800B0D0F804B0203DC6
:10488C0009FA05F82BEA080804FA05F588BF00F1C7
:10489C00040A48EA0505CAF80050D1F804A01AF039
:1048AC00805F49D0404F26F00308BD6908F180486D
:1048BC0045F00105BD61BD6908F5803805F00105BD
:1048CC00019506F0030B019D4FEA8B0BD8F80850AD
:1048DC0009FA0BF925EA0909344DA8425ED005F511
:1048EC008065A8425CD005F58065A8420CBF022506
:1048FC00032505FA0BF545EA0905C8F808501D68AB
:10490C001AF4803F14BF154395431D605D681AF47B
:10491C00003F14BF154395435D609D681AF4801FDA
:10492C0014BF154395439D60DD681AF4001F14BF36
:10493C002A4325EA0202DA60013676E7032D29D0F4
:10494C00112D90D1CC6804348DE7194FBD4208D09D
:10495C0011D8DFF86C904D4503D009F580394D45E1
:10496C0081D18C68C4B1012C0CBFC0F81080C0F888
:10497C001480082477E70F4FBD42F2D06545F0D084
:10498C007545EDE7CC686EE7CC6808346BE7CC680E
:10499C000C3468E7002466E7042464E70025A8E7E4
:1049AC000125A6E700040140001002400008014068
:1049BC000000211000003110000032100000221005
:1049CC000000111008B5044B5969014202D058611E
:1049DC0003F0A0F908BD00BF0004014037B590F802
:1049EC003D4004F02804282C34D1002930D0002A72
:1049FC002ED090F83C40012C2CD00124056880F876
:104A0C003C402C68E4075EBF2C6844F001042C6029
:104A1C002C6824F400642C60292480F83D40202468
:104A2C0080F83E40002404644285428DC3620194A8
:104A3C006B6941620193AB69028580F83C4020466A
:104A4C000193019B6B6843F4E0636B6003B030BD72
:104A5C000120FBE70220F9E737B590F83D4004F060
:104A6C002804282C34D1002930D0002A2ED090F8DC
:104A7C003C40012C2CD00124056880F83C402C686B
:104A8C00E4075EBF2C6844F001042C602C6824F40D
:104A9C0000642C602A2480F83D40202480F83E409D
:104AAC00002404644285428DC36201946B694162A7
:104ABC000193AB69028580F83C4020460193019B31
:104ACC006B6843F4E0636B6003B030BD0120FBE71F
:104ADC000220F9E790F83D30202B14D1282380F8E0
:104AEC003D30036800201A68D2075EBF1A6842F096
:104AFC0001021A601A6842F480621A605A6842F421
:104B0C0040725A6070470220704770477047704778
:104B1C00704770470023406A70B5026890F83D10EA
:104B2C001468466B856B24F48064B362AB621460CA
:104B3C0043851468736324F001046B63146090F86C
:104B4C003D40C9B2602C08D1202280F83D2080F86D
:104B5C003E300364FFF7DDFF70BD01F0280128290A
:104B6C000DD1146844F001041460146844F480649A
:104B7C001460036380F83D1002F05EF9ECE720222C
:104B8C0080F83D2080F83E30F6E7000090F83D209C
:104B9C0090F83E1010B510290446D2B2036812D119
:104BAC00222A10D1196821F400611960596809058D
:104BBC0004D4602A1CBF202284F83D2000222263EA
:104BCC0084F83E2007E002F028012829EED10022CB
:104BDC00226384F83D105A6812F400624CD05A6873
:104BEC00606B22F400625A6090F82130012B364B36
:104BFC0028D04363FFF7C6FD50B12268606B136881
:104C0C0023F001031360202384F83D30436B984755
:104C1C0094F83D30226CDBB2520712D5282B10D100
:104C2C0022682046536823F4E0635360274B20220C
:104C3C00E3620023236384F83D2084F83E3002F0C5
:104C4C00CEF810BDA06B4363FFF79CFD0028DFD0AE
:104C5C0023685A69520605D51A69636A1A70636A21
:104C6C00013363622268A06B136823F001031360A5
:104C7C00202384F83D30C9E794F83D10602915D104
:104C8C00202184F83D1022645A69500605D51A6912
:104C9C00636A1A70636A0133636222682046136880
:104CAC0023F001031360FFF734FFB1E75A69510693
:104CBC0005D51A69636A1A70636A01336362204608
:104CCC0002F0BAF8A4E700BF214B00080000FFFF78
:104CDC00036830B55A68C56A90F83E100446C9B2EC
:104CEC0090F83D0010298DB0C0B202D0402940F0A0
:104CFC00B9829969586910F0010F07D1B5F52A0FDF
:104D0C0002D0B5F12A4F52D10DB030BD95054ED51C
:104D1C00E26AB2F52A0F0CD10122E26294F83E202D
:104D2C00402A11D1226D52B9626C02F0FE021A6156
:104D3C00EAE7E26AB2F12A4FF0D10822EDE7626CA1
:104D4C0042F00102D2B2F2E72269B2F5804F1BD1D8
:104D5C0094F83D20212A626C12D102F0FE021A61F5
:104D6C00626B12B9A16B0029CED0926A1AB9A26BF0
:104D7C00926A002AC8D05A6842F400625A60C3E7AB
:104D8C0042F00102D2B2EAE7226D32B9626CD21162
:104D9C0002F0060242F0F002C9E7226D012AB3D1FB
:104DAC00626CD21102F0060242F0F102BFE7050775
:104DBC0003D5950501D5626CE4E7850740F1E680E3
:104DCC00950540F1E38094F83E10E26A256B94F867
:104DDC003D00C9B2222840F0D180206D40B9402955
:104DEC0006D100905A6900929B690093009B8BE757
:104DFC00216D81B92069B0F5404F0CD101915A69F0
:104E0C0001929A690192019A1A6842F480721A60AE
:104E1C00236D013328E0618D89B251B902915A6931
:104E2C0002929A690292029A1A6842F400721A600B
:104E3C0019E0618D89B201294AD112F5803F1CD14C
:104E4C001A6822F480621A605A6812F400620DD05B
:104E5C001A6822F480621A60002203925A69039243
:104E6C009B690393039B002323654DE704925A69C6
:104E7C0004929A690492049AD6E7082A1CD0202A34
:104E8C001AD0122D0DD1012A16D11A6822F4806283
:104E9C001A60002205925A6905929B690593059B3D
:104EAC00E1E7102AF1D8904921FA02F2D207ECD5A9
:104EBC001A6842F48062EBE71A6822F480621A6086
:104ECC00002206925A6906929A690692069AABE7F4
:104EDC00618D89B2022933D1102A05D88249D1407B
:104EEC00C94311F0010120D0196841F40061196027
:104EFC0000210791596907919969079107991968D8
:104F0C0021F48061196059680D05ACD512F5803F0C
:104F1C0006D0511E1F29A6D8744ACA40D007A2D564
:104F2C005A6842F480525A609DE7186840F48060D9
:104F3C001860089159690891996908910899E2E7F4
:104F4C00196841F480611960596809050ED512F58C
:104F5C00803F07D0013A1F2A08D8644921FA02F28F
:104F6C00D20703D55A6842F480525A600022099243
:104F7C005A6909929B690993099B74E700220A926A
:104F8C005A690A929B690A930A9BBDE611F0040FB9
:104F9C00596800F0AD800D053FF5B6AEC0F3800149
:104FAC00000669D5550567D5002968D194F83D20D0
:104FBC00258D94F83E10D2B2C9B2E06AC5B9212A47
:104FCC0018D1082878D0202876D010F5803F73D0DF
:104FDC005A6822F4E0625A6011232363002384F898
:104FEC003E302023204684F83D30FFF78EFD8BE6C3
:104FFC00212A05D040297FF487AE222A7FF484AE83
:10500C00628D92B21AB95A6822F48062B6E694F8AC
:10501C003E20402A26D1226D62B9E26C012AA26C94
:10502C0004D1D2B21A61236D02331DE7C2F30722F9
:10503C001A61EDE6226D012A02D1A26CD2B2F7E719
:10504C00226D022A7FF460AE94F83D20222A04D10E
:10505C001A6842F480721A6056E694F83D20212AB0
:10506C007FF452AE626A12F8011B19616262638DA1
:10507C00013B9BB2638547E600293FF445AE9005A2
:10508C007FF542AEE16A94F83D20212A7FF43CAED4
:10509C00628D92B2002AE5D108290DD020290BD0BF
:1050AC0011F5803F08D0596821F4E0615960112353
:1050BC00236384F83E2094E75A68204622F4E06289
:1050CC005A601A6842F400721A600023202223638B
:1050DC0084F83D2094F83E2084F83E30402A84D158
:1050EC00FFF715FD10E600BF140001008180008061
:1050FC0009053FF509AE4506C0F3800148D55005BA
:10510C0046D5002947D194F83D20222A7FF4FCADE6
:10511C00628D92B2032A14D91A69636A1A70636A8F
:10512C0001336362638D013B9BB26385638D9BB2DC
:10513C00032B7FF4E9AD2268536823F4806353603A
:10514C00E2E5E06A02283FF4DFAD012A3FF6DCAD70
:10515C001A6822F480621A605A6822F4E0625A607B
:10516C001A69636A1A70636A01336362638D013B67
:10517C009BB26385202384F83D3094F83E3084F84C
:10518C003E10402B68D121632046FFF7C1FCBBE5E4
:10519C0000293FF4B9AD92057FF5B6ADE26A608D9A
:1051AC00616A80B2042809D15A6822F480625A607C
:1051BC001B690B70636A0133636258E7608D80B2C0
:1051CC0003280CD15868042A20F480605860EFD072
:1051DC00022AEDD01A6822F480621A60E8E7608D2A
:1051EC0080B20228E4D1012A01D0102A28D11A68F1
:1051FC0022F480621A601B690B70626A531C636232
:10520C00638D013B9BB2638523681B695370636A92
:10521C00226801336362638D013B9BB263855368E3
:10522C0023F440735360202384F83D3094F83E30CF
:10523C00402B4FF0000384F83E300DD12363A3E7DD
:10524C00042A01D0022A03D11A6842F48062D1E701
:10525C001A6842F40072CDE7122320462363FFF74D
:10526C0055FC51E5216C21B30025596911F0020F51
:10527C0029D012F4007F26D0226C02B19D6994F8DB
:10528C003D2002F02802282A16D15A686FEA9501AF
:10529C0022F480625A602B064FF0000301F00101EA
:1052AC0054BFA289228B84F83C30204601F074FD57
:1052BC002AE59D695969D9E76FF002025A6100230A
:1052CC0084F83C3020E5CD0640F1B180950540F1E5
:1052DC00AE8094F83D505A68EDB222F4E0625A6008
:1052EC0000220B925A690B921A6842F001021A6062
:1052FC000B9A1A6822F480621A605A68110520D53C
:10530C0005F0F702222A4AD1A06B0268526892B2C9
:10531C006285628D92B21AB1226C42F00402226450
:10532C005A6822F400625A60FFF772FA012808D01A
:10533C00A06B794B4363FFF725FA10B1A06B436B5D
:10534C009847638D9BB213B323685A69520709D5EA
:10535C001A69636A1A70636A01336362638D013B75
:10536C009BB2638523685A69500609D51A69636A2A
:10537C001A70636A01336362638D013B9BB2638570
:10538C00638D9BB21BB1236C43F004032364236C29
:10539C0013B320460DB0BDE83040FFF7F7BB606B90
:1053AC000268526892B26285628D92B21AB1226C16
:1053BC0042F0040222645A6822F400625A60FFF739
:1053CC0027FA0128BDD0606B534B4363FFF7DAF922
:1053DC000028B6D0606BB2E72A2D06D123632823B0
:1053EC00204684F83D3001F011FD94F83D30282B17
:1053FC000CD14A4B2022E36200232046236384F81D
:10540C003D2084F83E3001F0EAFC7DE4236B222B36
:10541C0002D0222D7FF478AC00232022236384F861
:10542C003D2084F83E30204601F0F0FC6CE400F0A6
:10543C00F7002128C1F3800535D1090627D5510580
:10544C0025D53DBB94F83D10628DC9B292B2002AAD
:10545C003FF45AAC626A12F8015B1D616262628DA4
:10546C00013A92B26285628D92B2002A7FF44CAC02
:10547C0029297FF449AC5A6822F480625A602823A7
:10548C00206384F83D30204601F0D2FC3CE4002D32
:10549C003FF43AAC95057FF537AC628D92B2002A99
:1054AC003FF432ACDEE5480627D5510525D53DBB8A
:1054BC0094F83D20618DD2B289B200293FF424AC1E
:1054CC001969636A1970636A01336362638D013B06
:1054DC009BB26385638D9BB2002B7FF415AC2A2A9B
:1054EC007FF412AC2268536823F480635360222348
:1054FC002363282384F83D3095E7002D3FF404AC5A
:10550C0092057FF501AC628D92B2002A3FF4FCABA0
:10551C001A69636A1A704DE6214B00080000FFFF00
:10552C00F8B5036804465F695E68C7F3002555B19A
:10553C00C6F300253DB16FF4807201255A611A68DB
:10554C0042F400421A60B90506D5F20542BF6FF469
:10555C00007245F002055A61780537D5F10535D54D
:10556C0094F83EC0618D94F83D20BCF1200F89B2B7
:10557C00D2B2206B5AD1002958D102F0F70121295F
:10558C0003D0282A52D1212850D194F83D20E16A29
:10559C00D2B2082901D020292AD1282A28D12C4A74
:1055AC002046E2625A6822F4E0625A606FF480622C
:1055BC005A611A6822F480621A6000232022236345
:1055CC0084F83D2084F83E3001F009FC3A053BD5C7
:1055DC00F30539D56FF40062236845F008055A616C
:1055EC00236C20461D432564BDE8F840FFF7CEBA76
:1055FC00212A17D116492046E1622263202284F821
:10560C003D20002284F83E205A6822F4E0625A6061
:10561C006FF480625A611A6822F480621A6001F099
:10562C0007FCD3E76FF480625A61CFE76FF48062B6
:10563C005A6194F83E2045F00405102A02BF1A68FE
:10564C0042F400721A60C1E7002DC9D1F8BD00BF49
:10565C000000FFFF2DE9F341054638B30368DB0773
:10566C0010D42B689F075ED42B68190700F1958026
:10567C002B685A0700F1BF80E869002840F02E81A2
:10568C00002029E0904C636803F00C03042B07D036
:10569C00636803F00C03082B0AD16368DE0307D59B
:1056AC0023689C03DDD56B68002BDAD1012013E055
:1056BC006B68B3F5803F12D1236843F480332360C9
:1056CC00FEF786FC064623689803CAD4FEF780FCD6
:1056DC00801B6428F7D9032002B0BDE8F0819BB988
:1056EC00236823F480332360236823F4802323600E
:1056FC00FEF76EFC064623689903B2D5FEF768FCEC
:10570C00801B6428F7D9E6E7B3F5A02F236803D1F3
:10571C0043F480232360CFE723F480332360236892
:10572C0023F48023CBE7684C636813F00C0F07D08D
:10573C00636803F00C03082B10D16368DA030DD4F3
:10574C0023689B0702D52B69012BAFD123686A69AB
:10575C0023F0F80343EAC203236085E72A695B4B15
:10576C006AB101221A60FEF733FC064623689F07D4
:10577C00ECD4FEF72DFC801B0228F7D9ABE71A609E
:10578C00FEF726FC0646236898077FF56DAFFEF7FB
:10579C001FFC801B0228F6D99DE7AA694A4C4C4B8A
:1057AC00DAB101221A60FEF713FC0646636A9B0706
:1057BC000DD54FF4FA52474B1B68B3FBF2F3019330
:1057CC0000BF019B5A1E0192002BF9D150E7FEF746
:1057DC00FFFB801B0228E9D97DE71A60FEF7F8FB76
:1057EC000646636A9F077FF543AFFEF7F1FB801B0C
:1057FC000228F6D96FE7344CE369D80024D401278A
:10580C00E36943F08053E361E36903F08053009351
:10581C00009B314E3368D90518D5EB68012B26D186
:10582C00236A43F001032362FEF7D2FB41F2883670
:10583C008046236A9B073FD5002F3FF41DAFE369D9
:10584C0023F08053E36117E70027E2E7336843F462
:10585C0080733360FEF7BCFB80463368DA05DCD41A
:10586C00FEF7B6FBA0EB08006428F6D933E7ABB91A
:10587C00236A41F2883823F001032362236A23F060
:10588C0004032362FEF7A4FB0646236A9807D3D5CC
:10589C00FEF79EFB801B4045F7D91CE7052B236ABE
:1058AC0003D143F004032362BAE723F0010323621C
:1058BC00236A23F00403B6E7FEF78AFBA0EB08008B
:1058CC00B042B6D907E700BF0010024000004242C8
:1058DC00800442423C000020007000402A4B5A6871
:1058EC001C4602F00C02082A3DD00023274E022849
:1058FC0033602BD1FEF76CFB0746236899011FD44C
:10590C002B6AB3F5803F05D16268A96822F4003296
:10591C000A436260696A62680B4322F4741213438F
:10592C00636001233360FEF753FB054623689A013D
:10593C003FF5A6AEFEF74CFB401B0228F6D9CAE693
:10594C00FEF746FBC01B0228D7D9C4E6FEF740FB86
:10595C00054623689B017FF593AEFEF739FB401B90
:10596C000228F6D9B7E601283FF4B6AE5B682A6A7E
:10597C0003F4803191427FF499AE6A6A03F4701398
:10598C0093423FF47DAE91E600100240600042422B
:10599C0030B5184B87B002AC03F1100522461868DD
:1059AC005968083303C2AB421446F7D140F20123C5
:1059BC001149ADF804304B6803F00C02082A17D1DA
:1059CC00C3F3834206A80244DB0312F8102C0CD557
:1059DC004B680A48C3F34043504306AA134413F8D8
:1059EC00143CB0FBF3F007B030BD05485043FAE768
:1059FC000248F8E7309900080010024000127A00C3
:105A0C0000093D002DE9F0410D46044610B9012076
:105A1C00BDE8F081444A136803F007038B4228D396
:105A2C0021688E0730D4CA0743D43F4A136803F069
:105A3C000703AB4265D822683C4D12F0040F6CD1C1
:105A4C00130706D56B68226923F4605343EAC2033B
:105A5C006B60FFF79DFF6B68354AC3F30313D35C90
:105A6C00D840344B1860344B1868FEF76FFA00209E
:105A7C00CEE7136823F007030B431360136803F09E
:105A8C0007038B42C3D1CBE7284B11F0040F1EBF89
:105A9C005A6842F4E0625A60080742BF5A6842F4FE
:105AAC0060525A605A68A06822F0F00202435A60B1
:105ABC00B9E762681D4E012A33681AD113F4003F0E
:105ACC00A5D0736841F2883823F003031343736045
